{
  "address": "0x5FbDB2315678afecb367f032d93F642f64180aa3",
  "abi": [
    {
      "inputs": [],
      "stateMutability": "nonpayable",
      "type": "constructor"
    },
    {
      "anonymous": false,
      "inputs": [
        {
          "indexed": true,
          "internalType": "address",
          "name": "owner",
          "type": "address"
        },
        {
          "indexed": true,
          "internalType": "string",
          "name": "documentHash",
          "type": "string"
        },
        {
          "indexed": false,
          "internalType": "uint256",
          "name": "timestamp",
          "type": "uint256"
        },
        {
          "indexed": false,
          "internalType": "string",
          "name": "metadata",
          "type": "string"
        }
      ],
      "name": "DocumentNotarized",
      "type": "event"
    },
    {
      "anonymous": false,
      "inputs": [
        {
          "indexed": true,
          "internalType": "address",
          "name": "requester",
          "type": "address"
        },
        {
          "indexed": true,
          "internalType": "string",
          "name": "documentHash",
          "type": "string"
        },
        {
          "indexed": false,
          "internalType": "uint256",
          "name": "timestamp",
          "type": "uint256"
        }
      ],
      "name": "DocumentRetrieved",
      "type": "event"
    },
    {
      "anonymous": false,
      "inputs": [
        {
          "indexed": true,
          "internalType": "address",
          "name": "owner",
          "type": "address"
        },
        {
          "indexed": true,
          "internalType": "string",
          "name": "documentHash",
          "type": "string"
        },
        {
          "indexed": false,
          "internalType": "uint256",
          "name": "timestamp",
          "type": "uint256"
        }
      ],
      "name": "DocumentRevoked",
      "type": "event"
    },
    {
      "inputs": [
        {
          "internalType": "string",
          "name": "",
          "type": "string"
        }
      ],
      "name": "documents",
      "outputs": [
        {
          "internalType": "uint256",
          "name": "timestamp",
          "type": "uint256"
        },
        {
          "internalType": "address",
          "name": "owner",
          "type": "address"
        },
        {
          "internalType": "string",
          "name": "hash",
          "type": "string"
        },
        {
          "internalType": "string",
          "name": "metadata",
          "type": "string"
        },
        {
          "internalType": "bool",
          "name": "revoked",
          "type": "bool"
        }
      ],
      "stateMutability": "view",
      "type": "function"
    },
    {
      "inputs": [],
      "name": "getOwnedDocuments",
      "outputs": [
        {
          "internalType": "string[]",
          "name": "",
          "type": "string[]"
        }
      ],
      "stateMutability": "view",
      "type": "function"
    },
    {
      "inputs": [
        {
          "internalType": "string",
          "name": "_hash",
          "type": "string"
        },
        {
          "internalType": "string",
          "name": "_metadata",
          "type": "string"
        }
      ],
      "name": "notarizeDocument",
      "outputs": [],
      "stateMutability": "nonpayable",
      "type": "function"
    },
    {
      "inputs": [],
      "name": "owner",
      "outputs": [
        {
          "internalType": "address",
          "name": "",
          "type": "address"
        }
      ],
      "stateMutability": "view",
      "type": "function"
    },
    {
      "inputs": [
        {
          "internalType": "string",
          "name": "_hash",
          "type": "string"
        }
      ],
      "name": "retrieveDocument",
      "outputs": [],
      "stateMutability": "nonpayable",
      "type": "function"
    },
    {
      "inputs": [
        {
          "internalType": "string",
          "name": "_hash",
          "type": "string"
        }
      ],
      "name": "revokeDocument",
      "outputs": [],
      "stateMutability": "nonpayable",
      "type": "function"
    },
    {
      "inputs": [
        {
          "internalType": "address",
          "name": "",
          "type": "address"
        },
        {
          "internalType": "uint256",
          "name": "",
          "type": "uint256"
        }
      ],
      "name": "userDocuments",
      "outputs": [
        {
          "internalType": "string",
          "name": "",
          "type": "string"
        }
      ],
      "stateMutability": "view",
      "type": "function"
    },
    {
      "inputs": [
        {
          "internalType": "string",
          "name": "_hash",
          "type": "string"
        }
      ],
      "name": "verifyDocument",
      "outputs": [
        {
          "internalType": "uint256",
          "name": "",
          "type": "uint256"
        },
        {
          "internalType": "address",
          "name": "",
          "type": "address"
        },
        {
          "internalType": "string",
          "name": "",
          "type": "string"
        },
        {
          "internalType": "bool",
          "name": "",
          "type": "bool"
        }
      ],
      "stateMutability": "view",
      "type": "function"
    }
  ],
  "transactionHash": "0x7ef262ace5bc908c3b2e87884986c419eb5484a22417936d7b20cae934ec9ba6",
  "args": [],
  "numDeployments": 1,
  "solcInputHash": "33c62f62b86340d96c67dd15b9d4f6cd",
  "bytecode": "0x608060405234801561001057600080fd5b50336000806101000a81548173ffffffffffffffffffffffffffffffffffffffff021916908373ffffffffffffffffffffffffffffffffffffffff1602179055506114b0806100606000396000f3fe608060405234801561001057600080fd5b50600436106100885760003560e01c80638e5edabb1161005b5780638e5edabb14610113578063a7803d6a14610131578063b3dd697b1461014d578063beee5eb71461018157610088565b8063029ba59b1461008d578063577a1b92146100a95780635aa338f4146100d95780638da5cb5b146100f5575b600080fd5b6100a760048036038101906100a29190610d95565b6101b4565b005b6100c360048036038101906100be9190610d59565b610376565b6040516100d091906110d5565b60405180910390f35b6100f360048036038101906100ee9190610d95565b61042f565b005b6100fd6105b8565b60405161010a9190611098565b60405180910390f35b61011b6105dc565b60405161012891906110b3565b60405180910390f35b61014b60048036038101906101469190610dd6565b6106f2565b005b61016760048036038101906101629190610d95565b610945565b6040516101789594939291906111be565b60405180910390f35b61019b60048036038101906101969190610d95565b610ace565b6040516101ab9493929190611172565b60405180910390f35b803373ffffffffffffffffffffffffffffffffffffffff166001826040516101dc9190611081565b908152602001604051809103902060010160009054906101000a900473ffffffffffffffffffffffffffffffffffffffff1673ffffffffffffffffffffffffffffffffffffffff1614610264576040517f08c379a000000000000000000000000000000000000000000000000000000000815260040161025b90611117565b60405180910390fd5b816001816040516102759190611081565b908152602001604051809103902060040160009054906101000a900460ff16156102d4576040517f08c379a00000000000000000000000000000000000000000000000000000000081526004016102cb90611137565b60405180910390fd5b600180846040516102e59190611081565b908152602001604051809103902060040160006101000a81548160ff0219169083151502179055508260405161031b9190611081565b60405180910390203373ffffffffffffffffffffffffffffffffffffffff167f232011ba6d545e8e8f05c68183f32de302454dd4e75ab5fc1ab88a9db176c81e426040516103699190611157565b60405180910390a3505050565b6002602052816000526040600020818154811061039257600080fd5b906000526020600020016000915091505080546103ae906113ab565b80601f01602080910402602001604051908101604052809291908181526020018280546103da906113ab565b80156104275780601f106103fc57610100808354040283529160200191610427565b820191906000526020600020905b81548152906001019060200180831161040a57829003601f168201915b505050505081565b803373ffffffffffffffffffffffffffffffffffffffff166001826040516104579190611081565b908152602001604051809103902060010160009054906101000a900473ffffffffffffffffffffffffffffffffffffffff1673ffffffffffffffffffffffffffffffffffffffff16146104df576040517f08c379a00000000000000000000000000000000000000000000000000000000081526004016104d690611117565b60405180910390fd5b816001816040516104f09190611081565b908152602001604051809103902060040160009054906101000a900460ff161561054f576040517f08c379a000000000000000000000000000000000000000000000000000000000815260040161054690611137565b60405180910390fd5b8260405161055d9190611081565b60405180910390203373ffffffffffffffffffffffffffffffffffffffff167fe25328406e5d2b084257de381772d4dd5c99d03dc0c246bb3255f1f67c4a7d71426040516105ab9190611157565b60405180910390a3505050565b60008054906101000a900473ffffffffffffffffffffffffffffffffffffffff1681565b6060600260003373ffffffffffffffffffffffffffffffffffffffff1673ffffffffffffffffffffffffffffffffffffffff168152602001908152602001600020805480602002602001604051908101604052809291908181526020016000905b828210156106e957838290600052602060002001805461065c906113ab565b80601f0160208091040260200160405190810160405280929190818152602001828054610688906113ab565b80156106d55780601f106106aa576101008083540402835291602001916106d5565b820191906000526020600020905b8154815290600101906020018083116106b857829003601f168201915b50505050508152602001906001019061063d565b50505050905090565b60006001836040516107049190611081565b90815260200160405180910390206000015414610756576040517f08c379a000000000000000000000000000000000000000000000000000000000815260040161074d906110f7565b60405180910390fd5b6040518060a001604052804281526020013373ffffffffffffffffffffffffffffffffffffffff168152602001838152602001828152602001600015158152506001836040516107a69190611081565b90815260200160405180910390206000820151816000015560208201518160010160006101000a81548173ffffffffffffffffffffffffffffffffffffffff021916908373ffffffffffffffffffffffffffffffffffffffff1602179055506040820151816002019080519060200190610821929190610c24565b50606082015181600301908051906020019061083e929190610c24565b5060808201518160040160006101000a81548160ff021916908315150217905550905050600260003373ffffffffffffffffffffffffffffffffffffffff1673ffffffffffffffffffffffffffffffffffffffff168152602001908152602001600020829080600181540180825580915050600190039060005260206000200160009091909190915090805190602001906108da929190610c24565b50816040516108e99190611081565b60405180910390203373ffffffffffffffffffffffffffffffffffffffff167f7c7192e39c6346249b9086400767febd4ea5b89e0692aaa737942646e4b1659f428460405161093992919061121f565b60405180910390a35050565b6001818051602081018201805184825260208301602085012081835280955050505050506000915090508060000154908060010160009054906101000a900473ffffffffffffffffffffffffffffffffffffffff16908060020180546109aa906113ab565b80601f01602080910402602001604051908101604052809291908181526020018280546109d6906113ab565b8015610a235780601f106109f857610100808354040283529160200191610a23565b820191906000526020600020905b815481529060010190602001808311610a0657829003601f168201915b505050505090806003018054610a38906113ab565b80601f0160208091040260200160405190810160405280929190818152602001828054610a64906113ab565b8015610ab15780601f10610a8657610100808354040283529160200191610ab1565b820191906000526020600020905b815481529060010190602001808311610a9457829003601f168201915b5050505050908060040160009054906101000a900460ff16905085565b60008060606000600185604051610ae59190611081565b908152602001604051809103902060000154600186604051610b079190611081565b908152602001604051809103902060010160009054906101000a900473ffffffffffffffffffffffffffffffffffffffff16600187604051610b499190611081565b9081526020016040518091039020600301600188604051610b6a9190611081565b908152602001604051809103902060040160009054906101000a900460ff16818054610b95906113ab565b80601f0160208091040260200160405190810160405280929190818152602001828054610bc1906113ab565b8015610c0e5780601f10610be357610100808354040283529160200191610c0e565b820191906000526020600020905b815481529060010190602001808311610bf157829003601f168201915b5050505050915093509350935093509193509193565b828054610c30906113ab565b90600052602060002090601f016020900481019282610c525760008555610c99565b82601f10610c6b57805160ff1916838001178555610c99565b82800160010185558215610c99579182015b82811115610c98578251825591602001919060010190610c7d565b5b509050610ca69190610caa565b5090565b5b80821115610cc3576000816000905550600101610cab565b5090565b6000610cda610cd584611280565b61124f565b905082815260208101848484011115610cf257600080fd5b610cfd848285611369565b509392505050565b600081359050610d148161144c565b92915050565b600082601f830112610d2b57600080fd5b8135610d3b848260208601610cc7565b91505092915050565b600081359050610d5381611463565b92915050565b60008060408385031215610d6c57600080fd5b6000610d7a85828601610d05565b9250506020610d8b85828601610d44565b9150509250929050565b600060208284031215610da757600080fd5b600082013567ffffffffffffffff811115610dc157600080fd5b610dcd84828501610d1a565b91505092915050565b60008060408385031215610de957600080fd5b600083013567ffffffffffffffff811115610e0357600080fd5b610e0f85828601610d1a565b925050602083013567ffffffffffffffff811115610e2c57600080fd5b610e3885828601610d1a565b9150509250929050565b6000610e4e8383610ee9565b905092915050565b610e5f81611321565b82525050565b6000610e70826112c0565b610e7a81856112e3565b935083602082028501610e8c856112b0565b8060005b85811015610ec85784840389528151610ea98582610e42565b9450610eb4836112d6565b925060208a01995050600181019050610e90565b50829750879550505050505092915050565b610ee381611333565b82525050565b6000610ef4826112cb565b610efe81856112f4565b9350610f0e818560208601611378565b610f178161143b565b840191505092915050565b6000610f2d826112cb565b610f378185611305565b9350610f47818560208601611378565b610f508161143b565b840191505092915050565b6000610f66826112cb565b610f708185611316565b9350610f80818560208601611378565b80840191505092915050565b6000610f99601a83611305565b91507f446f63756d656e7420616c7265616479206e6f746172697a65640000000000006000830152602082019050919050565b6000610fd9602683611305565b91507f596f7520617265206e6f7420746865206f776e6572206f66207468697320646f60008301527f63756d656e7400000000000000000000000000000000000000000000000000006020830152604082019050919050565b600061103f601e83611305565b91507f5468697320646f63756d656e7420686173206265656e207265766f6b656400006000830152602082019050919050565b61107b8161135f565b82525050565b600061108d8284610f5b565b915081905092915050565b60006020820190506110ad6000830184610e56565b92915050565b600060208201905081810360008301526110cd8184610e65565b905092915050565b600060208201905081810360008301526110ef8184610f22565b905092915050565b6000602082019050818103600083015261111081610f8c565b9050919050565b6000602082019050818103600083015261113081610fcc565b9050919050565b6000602082019050818103600083015261115081611032565b9050919050565b600060208201905061116c6000830184611072565b92915050565b60006080820190506111876000830187611072565b6111946020830186610e56565b81810360408301526111a68185610f22565b90506111b56060830184610eda565b95945050505050565b600060a0820190506111d36000830188611072565b6111e06020830187610e56565b81810360408301526111f28186610f22565b905081810360608301526112068185610f22565b90506112156080830184610eda565b9695505050505050565b60006040820190506112346000830185611072565b81810360208301526112468184610f22565b90509392505050565b6000604051905081810181811067ffffffffffffffff821117156112765761127561140c565b5b8060405250919050565b600067ffffffffffffffff82111561129b5761129a61140c565b5b601f19601f8301169050602081019050919050565b6000819050602082019050919050565b600081519050919050565b600081519050919050565b6000602082019050919050565b600082825260208201905092915050565b600082825260208201905092915050565b600082825260208201905092915050565b600081905092915050565b600061132c8261133f565b9050919050565b60008115159050919050565b600073ffffffffffffffffffffffffffffffffffffffff82169050919050565b6000819050919050565b82818337600083830152505050565b60005b8381101561139657808201518184015260208101905061137b565b838111156113a5576000848401525b50505050565b600060028204905060018216806113c357607f821691505b602082108114156113d7576113d66113dd565b5b50919050565b7f4e487b7100000000000000000000000000000000000000000000000000000000600052602260045260246000fd5b7f4e487b7100000000000000000000000000000000000000000000000000000000600052604160045260246000fd5b6000601f19601f8301169050919050565b61145581611321565b811461146057600080fd5b50565b61146c8161135f565b811461147757600080fd5b5056fea26469706673582212207c08c062c884529118991cea04e55f23b15946336abd73bdcbe538dd0ae8d2f664736f6c63430008000033",
  "devdoc": {
    "kind": "dev",
    "methods": {},
    "version": 1
  },
  "userdoc": {
    "kind": "user",
    "methods": {},
    "version": 1
  },
  "storageLayout": {
    "storage": [
      {
        "astId": 3,
        "contract": "contracts/Notary.sol:Notary",
        "label": "owner",
        "offset": 0,
        "slot": "0",
        "type": "t_address"
      },
      {
        "astId": 19,
        "contract": "contracts/Notary.sol:Notary",
        "label": "documents",
        "offset": 0,
        "slot": "1",
        "type": "t_mapping(t_string_memory_ptr,t_struct(Document)14_storage)"
      },
      {
        "astId": 24,
        "contract": "contracts/Notary.sol:Notary",
        "label": "userDocuments",
        "offset": 0,
        "slot": "2",
        "type": "t_mapping(t_address,t_array(t_string_storage)dyn_storage)"
      }
    ],
    "types": {
      "t_address": {
        "encoding": "inplace",
        "label": "address",
        "numberOfBytes": "20"
      },
      "t_array(t_string_storage)dyn_storage": {
        "base": "t_string_storage",
        "encoding": "dynamic_array",
        "label": "string[]",
        "numberOfBytes": "32"
      },
      "t_bool": {
        "encoding": "inplace",
        "label": "bool",
        "numberOfBytes": "1"
      },
      "t_mapping(t_address,t_array(t_string_storage)dyn_storage)": {
        "encoding": "mapping",
        "key": "t_address",
        "label": "mapping(address => string[])",
        "numberOfBytes": "32",
        "value": "t_array(t_string_storage)dyn_storage"
      },
      "t_mapping(t_string_memory_ptr,t_struct(Document)14_storage)": {
        "encoding": "mapping",
        "key": "t_string_memory_ptr",
        "label": "mapping(string => struct Notary.Document)",
        "numberOfBytes": "32",
        "value": "t_struct(Document)14_storage"
      },
      "t_string_memory_ptr": {
        "encoding": "bytes",
        "label": "string",
        "numberOfBytes": "32"
      },
      "t_string_storage": {
        "encoding": "bytes",
        "label": "string",
        "numberOfBytes": "32"
      },
      "t_struct(Document)14_storage": {
        "encoding": "inplace",
        "label": "struct Notary.Document",
        "members": [
          {
            "astId": 5,
            "contract": "contracts/Notary.sol:Notary",
            "label": "timestamp",
            "offset": 0,
            "slot": "0",
            "type": "t_uint256"
          },
          {
            "astId": 7,
            "contract": "contracts/Notary.sol:Notary",
            "label": "owner",
            "offset": 0,
            "slot": "1",
            "type": "t_address"
          },
          {
            "astId": 9,
            "contract": "contracts/Notary.sol:Notary",
            "label": "hash",
            "offset": 0,
            "slot": "2",
            "type": "t_string_storage"
          },
          {
            "astId": 11,
            "contract": "contracts/Notary.sol:Notary",
            "label": "metadata",
            "offset": 0,
            "slot": "3",
            "type": "t_string_storage"
          },
          {
            "astId": 13,
            "contract": "contracts/Notary.sol:Notary",
            "label": "revoked",
            "offset": 0,
            "slot": "4",
            "type": "t_bool"
          }
        ],
        "numberOfBytes": "160"
      },
      "t_uint256": {
        "encoding": "inplace",
        "label": "uint256",
        "numberOfBytes": "32"
      }
    }
  }
}